Less1     111111122211/111/111111111111111FAIL      FAIL      1111111111FAIL      FAIL      111111111111111111111111111111
LessPart1 111111122211/111/11111FAIL      FAIL      FAIL      FAIL      FAIL      1111111111111111111111111111111111111111
Less3     333333344433/333/333333333333333FAIL      FAIL      3333333333FAIL      FAIL      333333333333333333333333333333
LessPart3 333333344433/333/33333FAIL      FAIL      FAIL      FAIL      FAIL      3333333333333333333333333333333333333333
Equal5    555555555555/555/555555555555555FAIL      FAIL      55555555555555555555FAIL      FAIL      55555555555555555555
LessPart6 666666688866/666/66666FAIL      FAIL      FAIL      FAIL      FAIL      6666666666666666666666666666666666666666
Equal0    000000000000/000/000000000000000FAIL      FAIL      00000000000000000000FAIL      FAIL      00000000000000000000
ZeroOne   011010101001/010/101010101010101FAIL      FAIL      01010101010101010101FAIL      FAIL      01010101010101010101
Greater4  444444433344/444/444444444444444FAIL      444444444444444444444444444444FAIL      FAIL      4444444444FAIL      
Greater2  222222211122/222/222222222222222FAIL      222222222222222222222222222222FAIL      FAIL      2222222222FAIL      
