0000000001SMALL LT GREEN MENS WOOL SOCKS                     7886 MAIN ST             KEARNY              VA770765225 KERRY               WALDER              
0000000100LARGE GRAY WOMENS COTTON SOCKS                     4581 81ST STR            TROY                CA272401360 CHARLENE            RICBAR              
0000000131LARGE LT BLUE WOMENS BELT                          4087 4TH STREET          MILL RUN            NY770392893 JEAN                LITEST              
