000000000100001C00000000001                                                          
000000000200002C00000000002                                                          
000000000300002C00000000003                                                          
000000000400004C00000000001MEDIUM PINK MENS COTTON PANT                      P1      
000000000600006C00000000004                                                          
000000000700007C00000000005                                                          
000000000800007C00000000006                                                          
000000001000011C00000000008                                                          
000000001100009C00000000007                                                          
000000010500005C00000000002                                                          
000000011200011C00000000008                                                          
