000000000002TILLOW              DAVE                S  837 JACKSON             MILLBURN            CO770858446 6113092658
000000000003LITEST              JEAN                W 4087 4TH STREET          MILL RUN            NY770392893 5004227486
000000000004HANDER              JEFF                M 7351 C STREET            FAIR BLUFF          VA450928853 6169189065
000000000005ASTEN               MICHAEL             F 6284 EAST DR             BROOKSIDE           MO772398742 3030008607
000000000006WALDER              KERRY               J 7886 MAIN ST             KEARNY              VA770765225 4153202567
000000000007RICBAR              CHARLENE            P 4581 81ST STR            TROY                CA272401360 7015259103
000000000008LITLER              BETTY               M 4843 97TH AVE            DEERFIELD           CO771891307 5141189165
000000000009FANOS               RICHARD             G 9228 THIRD ST            CHESTER             NJ021377221 7020130556
000000000010ROSTON              BILL                L   26 42ND AVE            ALBANY              OH021626099 2156436024
000000000011KILTRY              HANK                T  330 31ST AVE            BROOKSIDE           OH270235637 2067734267
000000000012HANSON              JEFF                R 6629 PIONEER             MILLVILLE           CA021267376 5185998119
000000000013VANMIN              ELDON               T  707 81ST STR            UNION               OH020668220 7063951234
000000000014LARAMS              SUE                 J 8969 PLUM DR             BAKER               TX642286061 7152057710
000000000015GRAACK              LIZA                B 4284 ELK GROVE           MILLVILLE           TX102452495 4063276842
