0000000001C000000000010000000001SMALL LT GREEN MENS WOOL SOCKS                    
0000000002C000000000020000000002MEDIUM PINK MENS COTTON PANTS                     
0000000010C000000000020000000010LARGE ORANGE MENS BELT                            
0000000058C000000000040000000058123456                                            
0000000072C000000000050000000072SMALL PINK GIRLS LIGHTWEIGHT JACKET               
0000000073C000000000060000000073X-LARGE GRAY MENS DENIM JEANS                     
0000000100C000000000080000000100LARGE GRAY WOMENS COTTON SOCKS                    
