000000000001FRANK               HIMACK              5033980478                  
000000000002DAVE                TILLOW              6113092658                  
000000000003JEAN                LITEST              5004227486                  
000000000004JEFF                HANDER              6169189065                  
000000000005MICHAEL             ASTEN               3030008607                  
000000000006KERRY               WALDER              4153202567                  
000000000007CHARLENE            RICBAR              7015259103                  
000000000008BETTY               LITLER              5141189165                  
000000000009RICHARD             FANOS               7020130556                  
000000000010BILL                ROSTON              2156436024                  
000000000011HANK                KILTRY              2067734267                  
000000000012JEFF                HANSON              5185998119                  
000000000013ELDON               VANMIN              7063951234                  
000000000014SUE                 LARAMS              7152057710                  
000000000015LIZA                GRAACK              4063276842                  
