0000000001SMALL LT GREEN MENS WOOL SOCKS                    1980010199999999        -9
0000000002MEDIUM PINK MENS COTTON PANTS                     1980010199999999        -9
0000000003MEDIUM ORANGE MENS LEATHER BELT                   2007010199999999        -9
0000000010LARGE ORANGE MENS BELT                            2008010199999999        -9
0000000058LARGE LT GRAY BOYS V-NECK SWEATER                 1980010199999999        -9
0000000072SMALL PINK GIRLS LIGHTWEIGHT JACKET               1980010199999999        -9
0000000073X-LARGE GRAY MENS DENIM JEANS                     1980010199999999        -9
0000000074LARGE BLUE MENS SHIRT/LONG SLEEVE                 1980010199999999        -9
0000000100LARGE GRAY WOMENS COTTON SOCKS                    1980010199999999        -9
0000000131LARGE LT BLUE WOMENS BELT                         1980010199999999        -9
0000000132LARGE LT BLUE WOMENS BELT                         1980010199999999        -9
