0000000001SMALL LT GREEN MENS WOOL SOCKS                    F1                  
0000000002MEDIUM PINK MENS COTTON PANTS                     P1                  
0000000010LARGE ORANGE MENS BELT                            A1                  
0000000072SMALL PINK GIRLS LIGHTWEIGHT JACKET               O4                  
0000000073X-LARGE GRAY MENS DENIM JEANS                     P1                  
0000000074LARGE BLUE MENS SHIRT/LONG SLEEVE                 T1                  
0000000100LARGE GRAY WOMENS COTTON SOCKS                    F2                  
0000000131LARGE LT BLUE WOMENS BELT                         A2                  
