0000000001SMALL LT GREEN MENS WOOL SOCKS                    F1WOMENS PANTS        
0000000003MEDIUM ORANGE MENS LEATHER BELT                   F1WOMENS PANTS        
0000000005SMALL BROWN BOYS LEATHER BELT                     F1WOMENS PANTS        
