0000000074LARGE BLU                                                             
0000000100LARGE GRA                                                             
0000000058LARGE LT                                                              
0000000131LARGE LT                                                              
0000000132LARGE LT                                                              
0000000010LARGE ORA                                                             
0000000003MEDIUM OR                                                             
0000000002MEDIUM PI                                                             
0000000001SMALL LT                                                              
0000000072SMALL PIN                                                             
0000000073X-LARGE G                                                             
