00000000012008010100006OHOHIO                                                   
000000000220090606                                                              
00000000032008010200002CACALIFORNIA                                             
000000000420090202                                                              
00000000102008010100002CACALIFORNIA                                             
000000005820080101                                                              
000000007220090503                                                              
000000007320080303                                                              
000000007420080703                                                              
00000001002008040600007NYNEW YORK                                               
