000000000001FRANK                                                               
000000000002DAVE                                                                
000000000003JEAN                                                                
000000000004JEFF                                                                
000000000005MICHAEL                                                             
000000000006KERRY                                                               
000000000007CHARLENE                                                            
000000000008BETTY                                                               
000000000009RICHARD                                                             
000000000010BILL                                                                
000000000011HANK                                                                
000000000012JEFF                                                                
000000000013ELDON                                                               
000000000014SUE                                                                 
000000000015LIZA                                                                
