A_CYMDT DATE 201Alpha      20190128120101012019-01-28 12:01:01.012019/01/28 12:01:01.0120190128120101201901281201010112:0112:01:0112:01:01.01120112010112010101
A_CYMDT DATE 201Alpha      20190129015959592019-01-29 01:59:59.592019/01/29 01:59:59.5920190129015959201901290159595901:5901:59:5901:59:59.59015901595901595959
A_CYMDT DATE 201Alpha      20190618230000002019-06-18 23:00:00.002019/06/18 23:00:00.0020190618230000201906182300000023:0023:00:0023:00:00.00230023000023000000
A_CYMDT DATE 201Bsort      20190128120101012019-01-28 12:01:01.012019/01/28 12:01:01.0120190128120101201901281201010112:0112:01:0112:01:01.01120112010112010101
A_CYMDT DATE 201Bsort      20190129015959592019-01-29 01:59:59.592019/01/29 01:59:59.5920190129015959201901290159595901:5901:59:5901:59:59.59015901595901595959
A_CYMDT DATE 201Bsort      20190618230000002019-06-18 23:00:00.002019/06/18 23:00:00.0020190618230000201906182300000023:0023:00:0023:00:00.00230023000023000000
A_CYMDT DATE 201BCD        20190128120101012019-01-28 12:01:01.012019/01/28 12:01:01.0120190128120101201901281201010112:0112:01:0112:01:01.01120112010112010101
A_CYMDT DATE 201BCD        20190129015959592019-01-29 01:59:59.592019/01/29 01:59:59.5920190129015959201901290159595901:5901:59:5901:59:59.59015901595901595959
A_CYMDT DATE 201BCD        20190618230000002019-06-18 23:00:00.002019/06/18 23:00:00.0020190618230000201906182300000023:0023:00:0023:00:00.00230023000023000000
A_CYMDT DATE 201Packed     20190128120101012019-01-28 12:01:01.012019/01/28 12:01:01.0120190128120101201901281201010112:0112:01:0112:01:01.01120112010112010101
A_CYMDT DATE 201Packed     20190129015959592019-01-29 01:59:59.592019/01/29 01:59:59.5920190129015959201901290159595901:5901:59:5901:59:59.59015901595901595959
A_CYMDT DATE 201Packed     20190618230000002019-06-18 23:00:00.002019/06/18 23:00:00.0020190618230000201906182300000023:0023:00:0023:00:00.00230023000023000000
A_CYMDT DATE 201Psort      20190128120101012019-01-28 12:01:01.012019/01/28 12:01:01.0120190128120101201901281201010112:0112:01:0112:01:01.01120112010112010101
A_CYMDT DATE 201Psort      20190129015959592019-01-29 01:59:59.592019/01/29 01:59:59.5920190129015959201901290159595901:5901:59:5901:59:59.59015901595901595959
A_CYMDT DATE 201Psort      20190618230000002019-06-18 23:00:00.002019/06/18 23:00:00.0020190618230000201906182300000023:0023:00:0023:00:00.00230023000023000000
A_CYMDT DATE 201Zoned      20190128120101012019-01-28 12:01:01.012019/01/28 12:01:01.0120190128120101201901281201010112:0112:01:0112:01:01.01120112010112010101
A_CYMDT DATE 201Zoned      20190129015959592019-01-29 01:59:59.592019/01/29 01:59:59.5920190129015959201901290159595901:5901:59:5901:59:59.59015901595901595959
A_CYMDT DATE 201Zoned      20190618230000002019-06-18 23:00:00.002019/06/18 23:00:00.0020190618230000201906182300000023:0023:00:0023:00:00.00230023000023000000
A_HMS   DATE 201BCD        20190128120101012019-01-28 12:01:01.012019/01/28 12:01:01.0120190128120101201901281201010112:0112:01:0112:01:01.01120112010112010101
A_HMS   DATE 201BCD        20190129015959592019-01-29 01:59:59.592019/01/29 01:59:59.5920190129015959201901290159595901:5901:59:5901:59:59.59015901595901595959
A_HMS   DATE 201BCD        20190618230000002019-06-18 23:00:00.002019/06/18 23:00:00.0020190618230000201906182300000023:0023:00:0023:00:00.00230023000023000000
A_HMST  DATE 201Binary     20190128120101012019-01-28 12:01:01.012019/01/28 12:01:01.0120190128120101201901281201010112:0112:01:0112:01:01.01120112010112010101
A_HMST  DATE 201Binary     20190129015959592019-01-29 01:59:59.592019/01/29 01:59:59.5920190129015959201901290159595901:5901:59:5901:59:59.59015901595901595959
A_HMST  DATE 201Binary     20190618230000002019-06-18 23:00:00.002019/06/18 23:00:00.0020190618230000201906182300000023:0023:00:0023:00:00.00230023000023000000
A_HMST  DATE 201Bsort      20190128120101012019-01-28 12:01:01.012019/01/28 12:01:01.0120190128120101201901281201010112:0112:01:0112:01:01.01120112010112010101
A_HMST  DATE 201Bsort      20190129015959592019-01-29 01:59:59.592019/01/29 01:59:59.5920190129015959201901290159595901:5901:59:5901:59:59.59015901595901595959
A_HMST  DATE 201Bsort      20190618230000002019-06-18 23:00:00.002019/06/18 23:00:00.0020190618230000201906182300000023:0023:00:0023:00:00.00230023000023000000
A_HMST  DATE 201Psort      20190128120101012019-01-28 12:01:01.012019/01/28 12:01:01.0120190128120101201901281201010112:0112:01:0112:01:01.01120112010112010101
A_HMST  DATE 201Psort      20190129015959592019-01-29 01:59:59.592019/01/29 01:59:59.5920190129015959201901290159595901:5901:59:5901:59:59.59015901595901595959
A_HMST  DATE 201Psort      20190618230000002019-06-18 23:00:00.002019/06/18 23:00:00.0020190618230000201906182300000023:0023:00:0023:00:00.00230023000023000000
A_HMST  DATE 201Zoned      20190128120101012019-01-28 12:01:01.012019/01/28 12:01:01.0120190128120101201901281201010112:0112:01:0112:01:01.01120112010112010101
A_HMST  DATE 201Zoned      20190129015959592019-01-29 01:59:59.592019/01/29 01:59:59.5920190129015959201901290159595901:5901:59:5901:59:59.59015901595901595959
A_HMST  DATE 201Zoned      20190618230000002019-06-18 23:00:00.002019/06/18 23:00:00.0020190618230000201906182300000023:0023:00:0023:00:00.00230023000023000000
A_POSIX DATE 201Alpha      20190128120101012019-01-28 12:01:01.012019/01/28 12:01:01.0120190128120101201901281201010112:0112:01:0112:01:01.01120112010112010101
A_POSIX DATE 201Alpha      20190129015959592019-01-29 01:59:59.592019/01/29 01:59:59.5920190129015959201901290159595901:5901:59:5901:59:59.59015901595901595959
A_POSIX DATE 201Alpha      20190618230000002019-06-18 23:00:00.002019/06/18 23:00:00.0020190618230000201906182300000023:0023:00:0023:00:00.00230023000023000000
B_CYMDT DATE 201Alpha      201901281201010120190128120101120112010112010101
B_CYMDT DATE 201Alpha      201901290159595920190129015959015901595901595959
B_CYMDT DATE 201Alpha      201906182300000020190618230000230023000023000000
B_CYMDT DATE 201Bsort      201901281201010120190128120101120112010112010101
B_CYMDT DATE 201Bsort      201901290159595920190129015959015901595901595959
B_CYMDT DATE 201Bsort      201906182300000020190618230000230023000023000000
B_CYMDT DATE 201BCD        201901281201010120190128120101120112010112010101
B_CYMDT DATE 201BCD        201901290159595920190129015959015901595901595959
B_CYMDT DATE 201BCD        201906182300000020190618230000230023000023000000
B_CYMDT DATE 201Packed     201901281201010120190128120101120112010112010101
B_CYMDT DATE 201Packed     201901290159595920190129015959015901595901595959
B_CYMDT DATE 201Packed     201906182300000020190618230000230023000023000000
B_CYMDT DATE 201Psort      201901281201010120190128120101120112010112010101
B_CYMDT DATE 201Psort      201901290159595920190129015959015901595901595959
B_CYMDT DATE 201Psort      201906182300000020190618230000230023000023000000
B_CYMDT DATE 201Zoned      201901281201010120190128120101120112010112010101
B_CYMDT DATE 201Zoned      201901290159595920190129015959015901595901595959
B_CYMDT DATE 201Zoned      201906182300000020190618230000230023000023000000
B_HMS   DATE 201BCD        201901281201010120190128120101120112010112010101
B_HMS   DATE 201BCD        201901290159595920190129015959015901595901595959
B_HMS   DATE 201BCD        201906182300000020190618230000230023000023000000
B_HMST  DATE 201Binary     201901281201010120190128120101120112010112010101
B_HMST  DATE 201Binary     201901290159595920190129015959015901595901595959
B_HMST  DATE 201Binary     201906182300000020190618230000230023000023000000
B_HMST  DATE 201Bsort      201901281201010120190128120101120112010112010101
B_HMST  DATE 201Bsort      201901290159595920190129015959015901595901595959
B_HMST  DATE 201Bsort      201906182300000020190618230000230023000023000000
B_HMST  DATE 201Psort      201901281201010120190128120101120112010112010101
B_HMST  DATE 201Psort      201901290159595920190129015959015901595901595959
B_HMST  DATE 201Psort      201906182300000020190618230000230023000023000000
B_HMST  DATE 201Zoned      201901281201010120190128120101120112010112010101
B_HMST  DATE 201Zoned      201901290159595920190129015959015901595901595959
B_HMST  DATE 201Zoned      201906182300000020190618230000230023000023000000
B_POSIX DATE 201Alpha      201901281201010120190128120101120112010112010101
B_POSIX DATE 201Alpha      201901290159595920190129015959015901595901595959
B_POSIX DATE 201Alpha      201906182300000020190618230000230023000023000000
C_CYMDT DATE 201Alpha      201901281201010120190128120101120112010112010101
C_CYMDT DATE 201Alpha      201901290159595920190129015959015901595901595959
C_CYMDT DATE 201Alpha      201906182300000020190618230000230023000023000000
C_CYMDT DATE 201Bsort      201901281201010120190128120101120112010112010101
C_CYMDT DATE 201Bsort      201901290159595920190129015959015901595901595959
C_CYMDT DATE 201Bsort      201906182300000020190618230000230023000023000000
C_CYMDT DATE 201BCD        201901281201010120190128120101120112010112010101
C_CYMDT DATE 201BCD        201901281201010120190128120101120112010112010101
C_CYMDT DATE 201BCD        201901290159595920190129015959015901595901595959
C_CYMDT DATE 201BCD        201901290159595920190129015959015901595901595959
C_CYMDT DATE 201BCD        201906182300000020190618230000230023000023000000
C_CYMDT DATE 201BCD        201906182300000020190618230000230023000023000000
C_CYMDT DATE 201Packed     201901281201010120190128120101120112010112010101
C_CYMDT DATE 201Packed     201901290159595920190129015959015901595901595959
C_CYMDT DATE 201Packed     201906182300000020190618230000230023000023000000
C_CYMDT DATE 201Psort      201901281201010120190128120101120112010112010101
C_CYMDT DATE 201Psort      201901290159595920190129015959015901595901595959
C_CYMDT DATE 201Psort      201906182300000020190618230000230023000023000000
C_CYMDT DATE 201Zoned      201901281201010120190128120101120112010112010101
C_CYMDT DATE 201Zoned      201901290159595920190129015959015901595901595959
C_CYMDT DATE 201Zoned      201906182300000020190618230000230023000023000000
C_HMST  DATE 201Binary     201901281201010120190128120101120112010112010101
C_HMST  DATE 201Binary     201901290159595920190129015959015901595901595959
C_HMST  DATE 201Binary     201906182300000020190618230000230023000023000000
C_HMST  DATE 201Bsort      201901281201010120190128120101120112010112010101
C_HMST  DATE 201Bsort      201901290159595920190129015959015901595901595959
C_HMST  DATE 201Bsort      201906182300000020190618230000230023000023000000
C_HMST  DATE 201Psort      201901281201010120190128120101120112010112010101
C_HMST  DATE 201Psort      201901290159595920190129015959015901595901595959
C_HMST  DATE 201Psort      201906182300000020190618230000230023000023000000
C_HMST  DATE 201Zoned      201901281201010120190128120101120112010112010101
C_HMST  DATE 201Zoned      201901290159595920190129015959015901595901595959
C_HMST  DATE 201Zoned      201906182300000020190618230000230023000023000000
C_POSIX DATE 201Alpha      201901281201010120190128120101120112010112010101
C_POSIX DATE 201Alpha      201901290159595920190129015959015901595901595959
C_POSIX DATE 201Alpha      201906182300000020190618230000230023000023000000
P_CYMDT DATE 201Alpha      201901281201010120190128120101120112010112010101
P_CYMDT DATE 201Alpha      201901290159595920190129015959015901595901595959
P_CYMDT DATE 201Alpha      201906182300000020190618230000230023000023000000
P_CYMDT DATE 201Bsort      201901281201010120190128120101120112010112010101
P_CYMDT DATE 201Bsort      201901290159595920190129015959015901595901595959
P_CYMDT DATE 201Bsort      201906182300000020190618230000230023000023000000
P_CYMDT DATE 201BCD        201901281201010120190128120101120112010112010101
P_CYMDT DATE 201BCD        201901290159595920190129015959015901595901595959
P_CYMDT DATE 201BCD        201906182300000020190618230000230023000023000000
P_CYMDT DATE 201Packed     201901281201010120190128120101120112010112010101
P_CYMDT DATE 201Packed     201901290159595920190129015959015901595901595959
P_CYMDT DATE 201Packed     201906182300000020190618230000230023000023000000
P_CYMDT DATE 201Psort      201901281201010120190128120101120112010112010101
P_CYMDT DATE 201Psort      201901290159595920190129015959015901595901595959
P_CYMDT DATE 201Psort      201906182300000020190618230000230023000023000000
P_CYMDT DATE 201Zoned      201901281201010120190128120101120112010112010101
P_CYMDT DATE 201Zoned      201901290159595920190129015959015901595901595959
P_CYMDT DATE 201Zoned      201906182300000020190618230000230023000023000000
P_HMS   DATE 201BCD        201901281201010120190128120101120112010112010101
P_HMS   DATE 201BCD        201901290159595920190129015959015901595901595959
P_HMS   DATE 201BCD        201906182300000020190618230000230023000023000000
P_HMST  DATE 201Binary     201901281201010120190128120101120112010112010101
P_HMST  DATE 201Binary     201901290159595920190129015959015901595901595959
P_HMST  DATE 201Binary     201906182300000020190618230000230023000023000000
P_HMST  DATE 201Bsort      201901281201010120190128120101120112010112010101
P_HMST  DATE 201Bsort      201901290159595920190129015959015901595901595959
P_HMST  DATE 201Bsort      201906182300000020190618230000230023000023000000
P_HMST  DATE 201Psort      201901281201010120190128120101120112010112010101
P_HMST  DATE 201Psort      201901290159595920190129015959015901595901595959
P_HMST  DATE 201Psort      201906182300000020190618230000230023000023000000
P_HMST  DATE 201Zoned      201901281201010120190128120101120112010112010101
P_HMST  DATE 201Zoned      201901290159595920190129015959015901595901595959
P_HMST  DATE 201Zoned      201906182300000020190618230000230023000023000000
P_POSIX DATE 201Alpha      201901281201010120190128120101120112010112010101
P_POSIX DATE 201Alpha      201901290159595920190129015959015901595901595959
P_POSIX DATE 201Alpha      201906182300000020190618230000230023000023000000
Z_CYMDT DATE 201Alpha      201901281201010120190128120101120112010112010101
Z_CYMDT DATE 201Alpha      201901290159595920190129015959015901595901595959
Z_CYMDT DATE 201Alpha      201906182300000020190618230000230023000023000000
Z_CYMDT DATE 201Bsort      201901281201010120190128120101120112010112010101
Z_CYMDT DATE 201Bsort      201901290159595920190129015959015901595901595959
Z_CYMDT DATE 201Bsort      201906182300000020190618230000230023000023000000
Z_CYMDT DATE 201BCD        201901281201010120190128120101120112010112010101
Z_CYMDT DATE 201BCD        201901290159595920190129015959015901595901595959
Z_CYMDT DATE 201BCD        201906182300000020190618230000230023000023000000
Z_CYMDT DATE 201Packed     201901281201010120190128120101120112010112010101
Z_CYMDT DATE 201Packed     201901290159595920190129015959015901595901595959
Z_CYMDT DATE 201Packed     201906182300000020190618230000230023000023000000
Z_CYMDT DATE 201Psort      201901281201010120190128120101120112010112010101
Z_CYMDT DATE 201Psort      201901290159595920190129015959015901595901595959
Z_CYMDT DATE 201Psort      201906182300000020190618230000230023000023000000
Z_CYMDT DATE 201Zoned      201901281201010120190128120101120112010112010101
Z_CYMDT DATE 201Zoned      201901290159595920190129015959015901595901595959
Z_CYMDT DATE 201Zoned      201906182300000020190618230000230023000023000000
Z_HMS   DATE 201BCD        201901281201010120190128120101120112010112010101
Z_HMS   DATE 201BCD        201901290159595920190129015959015901595901595959
Z_HMS   DATE 201BCD        201906182300000020190618230000230023000023000000
Z_HMST  DATE 201Binary     201901281201010120190128120101120112010112010101
Z_HMST  DATE 201Binary     201901290159595920190129015959015901595901595959
Z_HMST  DATE 201Binary     201906182300000020190618230000230023000023000000
Z_HMST  DATE 201Bsort      201901281201010120190128120101120112010112010101
Z_HMST  DATE 201Bsort      201901290159595920190129015959015901595901595959
Z_HMST  DATE 201Bsort      201906182300000020190618230000230023000023000000
Z_HMST  DATE 201Psort      201901281201010120190128120101120112010112010101
Z_HMST  DATE 201Psort      201901290159595920190129015959015901595901595959
Z_HMST  DATE 201Psort      201906182300000020190618230000230023000023000000
Z_HMST  DATE 201Zoned      201901281201010120190128120101120112010112010101
Z_HMST  DATE 201Zoned      201901290159595920190129015959015901595901595959
Z_HMST  DATE 201Zoned      201906182300000020190618230000230023000023000000
Z_POSIX DATE 201Alpha      201901281201010120190128120101120112010112010101
Z_POSIX DATE 201Alpha      201901290159595920190129015959015901595901595959
Z_POSIX DATE 201Alpha      201906182300000020190618230000230023000023000000
