0000000000000018AAA00018                                                                             100
0000000000000019AAA00019                    SARAH HATOFF 4 NEW ADDRESS STREET                       -200
0000000000000019AAA00019                    SARAH HATOFF 4 NEW ADDRESS STREET                       -200
0000000000000020BBB00020                                                                             300
0000000000000034AAA00018                                                                            1100
0000000000000034AAA00018                                                                            1100
0000000000000035CCC00035                                                                            1200
0000000000000036CCC00036                                                                 123456789012345
