0000000000000001                                                                                             100
0000000000000001                                                                                             200
0000000000000002AAA00002                          NAME 2 2 ADDRESS STREET                                    100
0000000000000002AAA00002                          NAME 2 2 ADDRESS STREET                                    200
0000000000000003AAA00003                          NAME 3 3 ADDRESS STREET                                    300
0000000000000004AAA00004                          NAME 4 4 ADDRESS STREET                                    400
0000000000000005AAA00005                          NAME 5 5 ADDRESS STREET                                    500
0000000000000018AAA00018                                                                                     100
0000000000000018AAA00018                                                                                     200
0000000000000019AAA00019                         NAME 19 19 ADDRESS STREET                                  -200
0000000000000019AAA00019                         NAME 19 19 ADDRESS STREET                                  -200
0000000000000020BBB00020                        NAME B20 20B ADDRESS STREET                                  300
0000000000000021AAA00002                          NAME 2 2 ADDRESS STREET                                    300
0000000000000022AAA00002                          NAME 2 2 ADDRESS STREET                                    300
0000000000000022AAA00002                          NAME 2 2 ADDRESS STREET                                    300
0000000000000034AAA00018                                                                                    1100
0000000000000034AAA00018                                                                                    1100
0000000000000035CCC00035                        NAME C35 35C ADDRESS STREET                                 1200
0000000000000022AAA00002                          NAME 2 2 ADDRESS STREET                                    300
0000000000000022AAA00002                          NAME 2 2 ADDRESS STREET                                    300
0000000000000022AAA00002                          NAME 2 2 ADDRESS STREET                                    300
0000000000000036CCC00036                        NAME C36 36C ADDRESS STREET                      123456789012345
