Less1     111111111122222222222222222222111112222211/111/22222FAIL      FAIL      1111111111
LessPart1 111111111122222222222222222233111112222211/111/22222FAIL      FAIL      1111111111
Less3     333333333344444444444444444444333334444433/333/44444FAIL      FAIL      3333333333
LessPart3 333333333344444444444444444455333334444433/333/44444FAIL      FAIL      3333333333
Equal5    555555555555555555555555555555555555555555/555/555555555555555FAIL      FAIL      
LessPart6 666666666688888888889999999999666668888866/666/88888FAIL      FAIL      6666666666
Equal0    000000000000000000000000000000000000000000/000/000000000000000FAIL      FAIL      
ZeroOne   010101010101010101010101010101010101010101/010/101010101010101FAIL      FAIL      
Greater4  444444444433333333333333333333444443333344/444/33333FAIL      4444444444FAIL      
Greater2  222222222211111111111111111111222221111122/222/11111FAIL      2222222222FAIL      
